:1000000047C06BC06AC069C068C067C066C065C0D1
:1000100064C063C062C061C060C05FC05EC05DC0DC
:1000200004C35BC0D0C2AAC258C057C056C055C096
:1000300054C053C000000000240027002A00000024
:100040000000250028002B000000000023002600EF
:10005000290004040404040404040202020202024B
:10006000030303030303010204081020408001027C
:1000700004081020010204081020000000080002FB
:100080000100000304070000000000000000F70466
:1000900011241FBECFEFD4E0DEBFCDBF11E0A0E042
:1000A000B1E0E4E4FDE002C005900D92A431B10797
:1000B000D9F721E0A4E1B1E001C01D92AA3BB2074B
:1000C000E1F710E0C8E4D0E003C02197FE0132D68A
:1000D000C734D107D1F7F3D233C692CFAF92BF92D4
:1000E000CF92DF92EF92FF920F931F93CF93DF9304
:1000F0006C017B018B01040F151FEB015E01AE1833
:10010000BF08C017D10759F06991D601ED91FC9154
:100110000190F081E02DC6010995892B79F7C50181
:10012000DF91CF911F910F91FF90EF90DF90CF90D3
:10013000BF90AF900895FC01538D448D252F30E082
:10014000842F90E0821B930B541710F0CF960895E4
:1001500001970895FC01918D828D981761F0A28D11
:10016000AE0FBF2FB11D5D968C91928D9F5F9F73D7
:10017000928F90E008958FEF9FEF0895FC01918D8D
:10018000828D981731F0828DE80FF11D858D90E0FA
:1001900008958FEF9FEF0895FC01918D228D892F97
:1001A00090E0805C9F4F821B91098F73992708957F
:1001B0008DE191E0F1DF21E0892B09F420E0822F2D
:1001C000089580E090E0892B19F0F2DF811118CFBB
:1001D0000895FC01A48DA80FB92FB11DA35ABF4FDC
:1001E0002C91848D90E001968F739927848FA68936
:1001F000B7892C93A089B1898C91837080648C938A
:10020000938D848D981306C00288F389E02D808138
:100210008F7D80830895EF92FF920F931F93CF936A
:10022000DF93EC0181E0888F9B8D8C8D98131AC031
:10023000E889F989808185FF15C09FB7F894EE8918
:10024000FF896083E889F989808183708064808375
:100250009FBF81E090E0DF91CF911F910F91FF90C0
:10026000EF900895F62E0B8D10E00F5F1F4F0F7368
:100270001127E02E8C8D8E110BC00FB607FCFACF24
:10028000E889F989808185FFF5CFCE01A2DFF2CF21
:10029000EB8DEC0FFD2FF11DE35AFF4FF0829FB75E
:1002A000F8940B8FEA89FB8980818062D0CFCF934D
:1002B000DF93EC01888D8823B1F0AA89BB89E88996
:1002C000F9898C9185FD03C0808186FD0CC00FB635
:1002D00007FCF7CF8C9185FFF2CF808185FFEDCFB2
:1002E000CE0177DFEACFDF91CF910895833081F09F
:1002F00028F4813099F08230A9F008958730A9F070
:100300008830C9F08430B1F4809180008F7D03C0C3
:10031000809180008F7780938000089584B58F77D7
:1003200084BD089584B58F7DFBCF8091B0008F7719
:100330008093B00008958091B0008F7DF9CF1F9316
:10034000CF93DF93282F30E0F901E658FF4F8491D7
:10035000F901EA59FF4FD491F901EE5AFF4FC491C8
:10036000CC23A1F0162F8111C1DFEC2FF0E0EE0FAE
:10037000FF1FE25CFF4FA591B4918FB7F894EC9109
:10038000111108C0D095DE23DC938FBFDF91CF9190
:100390001F910895DE2BF8CFCF93DF9390E0FC01FF
:1003A000EA59FF4F24918E5A9F4FFC018491882374
:1003B000D1F090E0880F991FFC01EC5CFF4FA591F4
:1003C000B491FC01E25CFF4FC591D49161110EC064
:1003D0009FB7F8948C91E22FE0958E238C9328811F
:1003E000E223E8839FBFDF91CF9108958FB7F89400
:1003F000EC91E22BEC938FBFF6CF8E50806480930C
:100400007C0080917A00806480937A0080917A00E9
:1004100086FDFCCF809178009091790008953FB7D8
:10042000F8948091190190911A01A0911B01B0914B
:100430001C0126B5A89B05C02F3F19F00196A11DF0
:10044000B11D3FBFBA2FA92F982F8827BC01CD011E
:10045000620F711D811D911D43E0660F771F881F7C
:10046000991F4A95D1F708958F929F92AF92BF92AC
:10047000CF92DF92EF92FF924B015C01D0DF6B01D4
:100480007C01CDDF6C197D098E099F09683E7340A0
:1004900081059105B0F321E0821A9108A108B10805
:1004A00088EEC80E83E0D81EE11CF11C8114910473
:1004B000A104B10431F7FF90EF90DF90CF90BF908F
:1004C000AF909F908F90089560E084E038DF61E006
:1004D00089E035DF60E081E132CFCF92DF92EF92A9
:1004E000FF920F931F93CF93DF938C0161E081E123
:1004F00026DF61E084E023DF60E089E020DF62E066
:1005000070E080E090E0B0DFC0910001D091010187
:100510000C171D07F4F460E082E011DFC01BD10B63
:10052000F12CE12C8CECC82E87E0D82ECE15DF05FF
:10053000C1F061E083E003DFC6010197F1F760E0FD
:1005400083E0FDDEC6010197F1F79FEFE91AF90A92
:10055000EDCF61E082E0F3DEC8018C1B9D0BEC0166
:10056000DFCF1093010100930001DF91CF911F9124
:100570000F91FF90EF90DF90CF90A6CF1F920F9238
:100580000FB60F9211242F933F934F935F936F9366
:100590007F938F939F93AF93BF93EF93FF938DE1DF
:1005A00091E017DEFF91EF91BF91AF919F918F91F5
:1005B0007F916F915F914F913F912F910F900FBE5F
:1005C0000F901F9018951F920F920FB60F92112443
:1005D0002F938F939F93EF93FF93E0912D01F091D1
:1005E0002E018081E0913301F091340182FD1BC026
:1005F0009081809136018F5F8F7320913701821730
:1006000041F0E0913601F0E0E35EFE4F958F80937C
:100610003601FF91EF919F918F912F910F900FBE17
:100620000F901F9018958081F4CF1F920F920FB6F4
:100630000F9211242F933F938F939F93AF93BF9368
:100640008091150190911601A0911701B0911801A8
:100650003091140126E0230F2D3758F50296A11D85
:10066000B11D209314018093150190931601A0935E
:100670001701B09318018091190190911A01A0916E
:100680001B01B0911C010196A11DB11D80931901A0
:1006900090931A01A0931B01B0931C01BF91AF91DD
:1006A0009F918F913F912F910F900FBE0F901F90B0
:1006B000189529E8230F0396A11DB11DD2CFCF9322
:1006C000DF9300D000D01F92CDB7DEB7789484B509
:1006D000826084BD84B5816084BD85B5826085BD3E
:1006E00085B5816085BD80916E00816080936E00CC
:1006F00010928100809181008260809381008091BE
:10070000810081608093810080918000816080936E
:1007100080008091B10084608093B1008091B0002E
:1007200081608093B00080917A00846080937A0029
:1007300080917A00826080937A0080917A008E7F27
:1007400080937A0080917A00806880937A0010927A
:10075000C1008CE19EE40197F1F761E082E11CDECB
:1007600060E082E1ECDD61E080E116DE61E080E1E5
:10077000E6DD61E081E110DE60E081E1E0DD61E085
:1007800083E00ADE61E082E007DE61E088E004DE0B
:1007900061E087E001DE61E086E0FEDD61E085E0AA
:1007A000FBDD61E089E0F8DD61E084E0F5DD60E03B
:1007B0008AE0F2DD60E08FE0EFDD60E08EE0ECDD0E
:1007C00060E088E0BCDD60E087E0B9DD60E086E005
:1007D000B6DD61E085E0B3DD77DE60E081E1AFDDCD
:1007E000E0912D01F0912E0182E08083E0912901BA
:1007F000F0912A011082E0912B01F0912C0187E603
:10080000808310923501E0913101F091320186E050
:100810008083E0912F01F09130018081806180839D
:10082000E0912F01F0913001808188608083E09118
:100830002F01F0913001808180688083E0912F0149
:10084000F091300180818F7D808390E080E045DEF3
:1008500068EE73E080E090E007DE9CE5292E90E0F2
:10086000392E00E010E028EE33E03A832983812C12
:10087000912C5401C12CD12C76018EE0BEDD092EC5
:10088000000CAA0BBB0BC80ED91EEA1EFB1E8FE084
:10089000B4DD092E000CAA0BBB0B880E991EAA1EF4
:1008A000BB1E49815A81415051095A834983452BC6
:1008B00021F7C501B40128EE33E040E050E0EAD072
:1008C00029013A01C701B60128EE33E040E050E0CB
:1008D000E1D0CA01B9013DD14B015C012DEC3CECEA
:1008E0004CEC5EE39CD104D16B012DEC3CEC4CE470
:1008F0005FE3C501B40193D1FBD046010D2C000C80
:10090000AA08BB089B01770F440B550B29833A8338
:100910004B835C83481459046A047B0458F0998122
:100920008A81421653066406750610F4942D852DAF
:10093000C92ED82E0D2C000CEE08FF08A701960139
:10094000281939094A095B09A8E6B1E099D029813B
:100950003A814B815C81281939094A095B0974D0B5
:100960006901E4E8F0E08491E0E7F0E0F491F983D4
:10097000F101F491FD8370E060E0FF23A1F08111AB
:10098000B5DC2D81E22FF0E0EE0FFF1FE85BFF4F9B
:10099000A591B4918C913981382391E080E009F4DC
:1009A00090E0692F782F41E0642782E1C8DC8091D4
:1009B000000190910101F601E81BF90BCF01F7FF4F
:1009C00003C0919581959109039714F0C60185DDC7
:1009D00064EF71E080E090E047DD0115110509F456
:1009E00042CFE6DB882309F43ECF0ADB3CCFEDE1C2
:1009F000F1E01382128288EE93E0A0E0B0E08483FD
:100A00009583A683B78386E091E09183808385EC0C
:100A100090E09587848784EC90E09787868780ECC8
:100A200090E0918B808B81EC90E0938B828B82ECB9
:100A300090E0958B848B86EC90E0978B868B118E63
:100A4000128E138E148E0895052E97FB16F40094C3
:100A50000FD057FD05D01ED007FC02D046F408C0C9
:100A600050954095309521953F4F4F4F5F4F0895DA
:100A700090958095709561957F4F8F4F9F4F08950A
:100A80002BD0A59F900DB49F900DA49F800D911D1C
:100A900011240895A1E21A2EAA1BBB1BFD010DC053
:100AA000AA1FBB1FEE1FFF1FA217B307E407F5071E
:100AB00020F0A21BB30BE40BF50B661F771F881FFA
:100AC000991F1A9469F760957095809590959B0190
:100AD000AC01BD01CF010895A29FB001B39FC00139
:100AE000A39F01D0B29F700D811D1124911D089507
:100AF00004D06894B1118DC0089570D088F09F57CC
:100B000090F0B92F9927B751A0F0D1F0660F771F59
:100B1000881F991F1AF0BA95C9F712C0B13081F039
:100B200077D0B1E0089574C0672F782F8827B85F19
:100B300039F0B93FCCF3869577956795B395D9F79A
:100B40003EF490958095709561957F4F8F4F9F4FA4
:100B50000895E89409C097FB3EF4909580957095B0
:100B600061957F4F8F4F9F4F9923A9F0F92F96E9F9
:100B7000BB279395F695879577956795B795F1116E
:100B8000F8CFFAF4BB0F11F460FF1BC06F5F7F4F0B
:100B90008F4F9F4F16C0882311F096E911C077231D
:100BA00021F09EE8872F762F05C0662371F096E826
:100BB000862F70E060E02AF09A95660F771F881FF5
:100BC000DAF7880F9695879597F9089557FD90580D
:100BD000440F551F59F05F3F71F04795880F97FB01
:100BE000991F61F09F3F79F08795089512161306BB
:100BF0001406551FF2CF4695F1DF08C016161706EA
:100C00001806991FF1CF869571056105089408951E
:100C1000E894BB2766277727CB0197F908950BD077
:100C200078C069D028F06ED018F0952309F05AC02A
:100C30005FC01124EECFCADFA0F3959FD1F3950FCB
:100C400050E0551F629FF001729FBB27F00DB11D50
:100C5000639FAA27F00DB11DAA1F649F6627B00DE0
:100C6000A11D661F829F2227B00DA11D621F739FC9
:100C7000B00DA11D621F839FA00D611D221F749FD7
:100C80003327A00D611D231F849F600D211D822F1E
:100C9000762F6A2F11249F5750408AF0E1F0882365
:100CA0004AF0EE0FFF1FBB1F661F771F881F915072
:100CB0005040A9F79E3F510570F014C0AACF5F3F86
:100CC000ECF3983EDCF3869577956795B795F795A5
:100CD000E7959F5FC1F7FE2B880F911D969587952D
:100CE00097F9089597F99F6780E870E060E00895AC
:100CF0009FEF80EC089500240A9416161706180634
:100D00000906089500240A9412161306140605060F
:100D10000895092E0394000C11F4882352F0BB0FA0
:100D200040F4BF2B11F460FF04C06F5F7F4F8F4F03
:100D30009F4F0895EE0FFF1F0590F491E02D099449
:040D4000F894FFCF55
:100D44006801000000000B016E009B005701CC00FD
:040D5400AA00BE0033
:00000001FF
