:100000004CC070C06FC06EC06DC06CC06BC06AC0A9
:1000100069C068C067C066C065C064C063C062C0B4
:10002000C2C360C09EC6CFC65DC05CC05BC05AC0C4
:1000300059C058C000000009000302000004050870
:100040000000000000000000000000010204081091
:100050002040800102040810200102040810204002
:1000600080400404040404040404020202020202A4
:10007000030303030303020203000000002300261E
:1000800000290000000000250028002B00000000CF
:1000900000240027002A0000110711241FBECFEF03
:1000A000D4E0DEBFCDBF11E0A0E0B1E0E8E2F4E1D2
:1000B00002C005900D92AA37B107D9F722E0AAE74E
:1000C000B1E001C01D92AD33B207E1F710E0CDE41D
:1000D000D0E003C02197FE0193D9CC34D107D1F7EA
:1000E0000BD8A0C98DCF61E089E0C7D460E081E181
:1000F000C4D41092900108958091900181110EC096
:1001000061E081E1BAD460E089E0B7D463E070E0F7
:1001100080E090E0C3D381E0809390010895EF9256
:10012000FF920F931F93CF93DF938C01E5DF8091B4
:10013000020190910301081719073CF560E082E085
:100140009CD48091020190910301801B910B21E0CE
:1001500030E03093920120939101EC01CC0FDD1F30
:10016000F12CE12CEC16FD0604F561E083E085D46A
:1001700088E592E0C9D360E083E07FD488E592E02F
:10018000C3D33FEFE31AF30AEDCF61E082E075D409
:1001900080910201909103019801281B390BC9013C
:1001A0001092920110929101D8CF10930301009305
:1001B0000201DF91CF911F910F91FF90EF90089571
:1001C0008F929F92AF92BF92CF92DF92EF92FF9267
:1001D000CF93DF9380E197E297D361E082E111D47E
:1001E00060E082E14AD461E080E10BD461E080E12B
:1001F00044D461E081E105D460E081E13ED461E076
:1002000083E0FFD361E082E0FCD361E088E0F9D3D2
:1002100061E087E0F6D361E086E0F3D361E085E05A
:10022000F0D361E089E0EDD361E084E0EAD360E0FF
:100230008AE0E7D360E08FE0E4D360E08EE0E1D3D2
:1002400061E088E01AD460E087E017D460E086E0DF
:1002500014D461E085E011D461E084E00ED443DF82
:1002600060E081E10AD480E082D326E040E05BE4F4
:1002700060E070E080EA91E024D590E080E04FDF1C
:100280006AE070E080E090E009D32DDF68EE73E073
:1002900080E090E003D310928C0110928D011092B7
:1002A0008E0110928F011092880110928901109294
:1002B0008A0110928B01C2E3D0E08EE05BD3092E5D
:1002C000000CAA0BBB0B40918C0150918D016091E9
:1002D0008E0170918F01840F951FA61FB71F809309
:1002E0008C0190938D01A0938E01B0938F018FE0CC
:1002F00041D3092E000CAA0BBB0B409188015091F1
:10030000890160918A0170918B016C017D01C40E9D
:10031000D51EE61EF71EC0928801D0928901E09298
:100320008A01F0928B01219741F660918C017091C6
:100330008D0180918E0190918F0122E3822E912C6C
:10034000A12CB12CA501940113D820938C013093DA
:100350008D0140938E0150938F01C701B601A50115
:10036000940106D8209388013093890140938A0133
:1003700050938B0164EF71E080E090E0DF91CF91CA
:10038000FF90EF90DF90CF90BF90AF909F908F90B5
:1003900085C24F925F926F927F928F929F92AF929F
:1003A000BF92CF92DF92EF92FF920F931F9345D2AD
:1003B0000091930110919401209195013091960143
:1003C0002B013C01401A510A620A730A8091900184
:1003D000811152C080917A0190917B01092E000C0D
:1003E000AA0BBB0B84159505A605B70508F044C0FC
:1003F00080917E0190917F01C29708F09BC08FE0B1
:10040000B9D2092E000CAA0BBB0B40918001509170
:1004100081016091820170918301840F951FA61F55
:10042000B71F8093800190938101A0938201B093C4
:1004300083018EE09FD2092E000CAA0BBB0B4091CA
:100440008401509185016091860170918701840F2C
:10045000951FA61FB71F8093840190938501A093D9
:100460008601B093870180917E0190917F01019672
:1004700090937F0180937E018AE02CD361E0892BE9
:1004800009F060E082E1F9D240917A0150917B015C
:100490002091020130910301CA01821B930B1816AF
:1004A00019060CF058C1421753070CF04AC12091AD
:1004B0009101309192012130310509F04CC160E089
:1004C00083E0DBD26091020170910301660F771F18
:1004D000072E000C880B990BE1D180917A01909145
:1004E0007B011DDE6AE070E080E090E0D7D1FBDDAB
:1004F000A4D160939301709394018093950190939C
:10050000960160917A0170917B01660F771F072E2B
:10051000000C880B990B1F910F91FF90EF90DF90CB
:10052000CF90BF90AF909F908F907F906F905F9093
:100530004F90B4C1609180017091810180918201DE
:1005400090918301F2E38F2E912CA12CB12CA50167
:1005500094010ED7209388013093890140938A013A
:1005600050938B01109280011092810110928201B0
:1005700010928301609184017091850180918601C0
:1005800090918701A5019401F3D620938C013093BB
:100590008D0140938E0150938F011092840110922F
:1005A00085011092860110928701CA01B901E0D538
:1005B0004B015C012DEC3CEC4CEC5EE367D6A7D51F
:1005C00070937D0160937C012DEC3CEC4CE45FE387
:1005D000C501B4015BD69BD5709301016093000106
:1005E00065E071E080EA91E085D440918801509106
:1005F000890160918A0170918B012AE030E080EAE4
:1006000091E02ED56BE071E080EA91E073D44091E7
:100610008C0150918D0160918E0170918F012AE0C3
:1006200030E080EA91E01CD565E171E080EA91E07C
:1006300061D460917C0170917D014AE050E080EAD4
:1006400091E0F8D462E271E080EA91E053D46091E5
:100650000001709101014AE050E080EA91E0EAD4A3
:100660006FE271E080EA91E045D460917A01709187
:100670007B014AE050E080EA91E0DCD48090880180
:1006800090908901A0908A01B0908B0180917C01AB
:1006900090917D01E0900001F0900101092E000C85
:1006A000AA0BBB0B9C01AD010F2C000C000B110B16
:1006B00088169906AA06BB0638F0C7018E149F0457
:1006C000A006B10608F4C40190937B0180937A01DF
:1006D000BC01990F880B990B1F921F92E1E0EF93D9
:1006E000E8E6EF93E4EBAE2EB12CC12CD12CC4D4B0
:1006F00070937B0160937A0162E471E080EA91E09B
:10070000F9D360917A0170917B014AE050E080EA70
:1007100091E096D465E571E080EA91E0EBD36091D9
:100720000201709103014AE050E080EA91E088D430
:1007300010927F0110927E010F900F900F900F90FA
:100740009BCE241735073CF4209191013091920102
:10075000232B09F4B4CE97FF03C09195819591099D
:10076000833091058CF02DED421625E05206610490
:10077000710408F0A4CE4A973CF089EC4816510465
:100780006104710408F09BCE1F910F91FF90EF90D0
:10079000DF90CF90BF90AF909F908F907F906F90A1
:1007A0005F904F9008951F920F920FB60F921124F1
:1007B0002F933F938F939F93AF93BF938091980113
:1007C00090919901A0919A01B0919B01309197016C
:1007D00026E0230F2D3758F50296A11DB11D209359
:1007E00097018093980190939901A0939A01B093F7
:1007F0009B0180919C0190919D01A0919E01B091DF
:100800009F010196A11DB11D80939C0190939D01B4
:10081000A0939E01B0939F01BF91AF919F918F9143
:100820003F912F910F900FBE0F901F90189529E8C0
:10083000230F0396A11DB11DD2CF2FB7F89460915D
:1008400098017091990180919A0190919B012FBF1D
:1008500008953FB7F89480919C0190919D01A091DB
:100860009E01B0919F0126B5A89B05C02F3F19F0AE
:100870000196A11DB11D3FBFBA2FA92F982F882720
:10088000BC01CD01620F711D811D911D43E0660FFA
:10089000771F881F991F4A95D1F708958F929F92CD
:1008A000AF92BF92CF92DF92EF92FF926B017C01E9
:1008B000D0DF4B015C01C114D104E104F104D9F093
:1008C00025D4C7DF681979098A099B09683E7340F6
:1008D0008105910580F321E0C21AD108E108F108F1
:1008E00088EE880E83E0981EA11CB11CC114D104AF
:1008F000E104F10431F7FF90EF90DF90CF90BF90CB
:10090000AF909F908F900895000000008330910574
:1009100028F0880F991F05970197F1F708957894AB
:1009200084B5836084BD85B5836085BDEEE6F0E067
:10093000808181608083E1E8F0E082E080838081D3
:1009400081608083E0E8F0E0808181608083E1EB7A
:10095000F0E0808184608083E0EBF0E08081816062
:10096000808386E880937A001092C1000895809376
:1009700004010895883020F08D3008F48DE08E5009
:100980002091040190E4299F900111248770822B0B
:1009900080937C0080917A00806480937A008091BB
:1009A0007A0086FDFCCF80917800909179000895BF
:1009B000843081F028F48230E9F08330F9F0089532
:1009C000883071F0893091F08530B9F480918000E1
:1009D0008F7D03C0809180008F7780938000089581
:1009E0008091B0008F778093B00008958091B0001F
:1009F0008F7DF9CF84B58F7784BD089584B58F7DC1
:100A0000FBCFCF93DF9390E0FC01E55BFF4F249198
:100A10008E599F4FFC0184918823C9F090E0880F84
:100A2000991FFC01E357FF4FA591B491FC01ED57CD
:100A3000FF4FC591D49161110DC09FB7F8948C916F
:100A4000209582238C938881282328839FBFDF9160
:100A5000CF910895623051F49FB7F8943C91822F62
:100A6000809583238C93E8812E2BEFCF8FB7F8945A
:100A7000EC912E2B2C938FBFEACF1F93CF93DF9354
:100A8000282F30E0F901EC5CFF4F8491F901E55B20
:100A9000FF4FD491F901EE59FF4FC491CC23A1F03F
:100AA000162F811185DFEC2FF0E0EE0FFF1FED57C1
:100AB000FF4FA591B4918FB7F894EC91111108C034
:100AC000D095DE23DC938FBFDF91CF911F910895E6
:100AD000DE2BF8CFCF93DF93282F30E0F901EC5CC9
:100AE000FF4F8491F901E55BFF4FD491F901EE5975
:100AF000FF4FC491CC2399F081115ADFEC2FF0E025
:100B0000EE0FFF1FE758FF4FA591B491EC91ED2335
:100B100081E090E009F480E0DF91CF91089580E0DA
:100B200090E0FACFFC01918D228D892F90E0805CBE
:100B30009F4F821B91098F7399270895FC01918D16
:100B4000828D981731F0828DE80FF11D858D90E030
:100B500008958FEF9FEF0895FC01918D828D981776
:100B600061F0A28DAE0FBF2FB11D5D968C91928D5D
:100B70009F5F9F73928F90E008958FEF9FEF08958E
:100B8000FC01538D448D252F30E0842F90E0821B93
:100B9000930B541710F0CF9608950197089588E0AD
:100BA00097E0892B39F080E090E0892B19F030D163
:100BB000811126CA0895FC01A48DA80FB92FB11D7B
:100BC000A35ABF4F2C91848D90E001968F73992783
:100BD000848FA689B7892C93A089B1898C91806470
:100BE0008C93938D848D981306C00288F389E02D31
:100BF00080818F7D80830895CF93DF93EC01888D72
:100C00008823B1F0AA89BB89E889F9898C9185FD8F
:100C100003C0808186FD0CC00FB607FCF7CF8C9116
:100C200085FFF2CF808185FFEDCFCE01C4DFEACF13
:100C3000DF91CF910895EF92FF920F931F93CF937F
:100C4000DF93EC0181E0888F9B8D8C8D981316C00B
:100C5000E889F989808185FF11C0EE89FF89608369
:100C6000E889F98980818064808381E090E0DF9168
:100C7000CF911F910F91FF90EF900895F62E0B8D5D
:100C800010E00F5F1F4F0F731127E02E8C8D8E1118
:100C90000BC00FB607FCFACFE889F989808185FF80
:100CA000F5CFCE0188DFF2CFEB8DEC0FFD2FF11DDC
:100CB000E35AFF4FF0820B8FEA89FB8980818062C3
:100CC000D3CFCF92DF92EF92FF921F93CF93DF9318
:100CD000EC016A017B01122F60E874E88EE190E07C
:100CE000A701960145D32150310941095109569573
:100CF000479537952795E889F98982E08083211502
:100D000080E1380790F0E889F989108260E472E4A4
:100D10008FE090E0A70196012BD3215031094109C2
:100D200051095695479537952795EC85FD85308374
:100D3000EE85FF852083188EEC89FD891083EA8972
:100D4000FB89808188698083EA89FB8980818F7D26
:100D50008083DF91CF911F91FF90EF90DF90CF9034
:100D600008951F920F920FB60F9211242F938F9315
:100D70009F93EF93FF93E091B001F091B1018081D7
:100D8000E091B601F091B70182FD1BC09081809186
:100D9000B9018F5F8F732091BA01821741F0E09102
:100DA000B901F0E0E056FE4F958F8093B901FF91B5
:100DB000EF919F918F912F910F900FBE0F901F90E9
:100DC00018958081F4CF1F920F920FB60F921124C5
:100DD0002F933F934F935F936F937F938F939F9343
:100DE000AF93BF93EF93FF9380EA91E0E4DEFF912E
:100DF000EF91BF91AF919F918F917F916F915F9193
:100E00004F913F912F910F900FBE0F901F9018950B
:100E100080EA91E087DE21E0892B09F420E0822F2F
:100E20000895E0EAF1E01382128288EE93E0A0E0F8
:100E3000B0E084839583A683B78388E691E09183AD
:100E4000808385EC90E09587848784EC90E0978799
:100E5000868780EC90E0918B808B81EC90E0938B87
:100E6000828B82EC90E0958B848B86EC90E0978B64
:100E7000868B118E128E138E148E0895AF92BF92B0
:100E8000CF92DF92EF92FF920F931F93CF93DF9356
:100E90006C017B018B01040F151FEB015E01AE1885
:100EA000BF08C017D10759F06991D601ED91FC91A7
:100EB0000190F081E02DC6010995892B79F7C501D4
:100EC000DF91CF911F910F91FF90EF90DF90CF9026
:100ED000BF90AF900895FB0101900020E9F7319792
:100EE000AF01461B570BDC01ED91FC910280F381B1
:100EF000E02D09946115710509F0EDCF90E080E0D7
:100F00000895DC01ED91FC910190F081E02D0994B0
:100F100066E771E0E0CF8F929F92AF92BF92EF921F
:100F2000FF920F931F93CF93DF93CDB7DEB7A197B7
:100F30000FB6F894DEBF0FBECDBF7C01FA01CB0126
:100F400019A2223008F42AE08E010F5D1F4F822E75
:100F5000912CB12CA12CBF01A501940109D2F9015A
:100F6000CA016A3004F5605DD8016E938D01232BB0
:100F7000242B252B81F790E080E0109719F0BD011C
:100F8000C701A9DFA1960FB6F894DEBF0FBECDBF93
:100F9000DF91CF911F910F91FF90EF90BF90AF9095
:100FA0009F908F900895695CDFCFCF92DF92EF9290
:100FB000FF920F931F93CF93DF932115310581F497
:100FC000DC01ED91FC910190F081E02D642FDF9127
:100FD000CF911F910F91FF90EF90DF90CF900994E8
:100FE0002A303105F1F42AE077FF1BC06A017B014A
:100FF000EC016DE286DF8C0144275527BA014C19BC
:101000005D096E097F092AE0CE0185DF800F911FFF
:10101000DF91CF911F910F91FF90EF90DF90CF90D4
:101020000895DF91CF911F910F91FF90EF90DF9086
:10103000CF9071CF9A01AB01770F660B770BB5CFCD
:101040000F931F93CF93DF93EC01F4DF8C01CE015C
:101050005FDF800F911FDF91CF911F910F91089556
:101060002115310541F4DC01ED91FC910190F081F5
:10107000E02D642F09944FCF4F925F926F927F9231
:10108000AF92BF92CF92DF92EF92FF920F931F9396
:10109000CF93DF93CDB7DEB729013A019B01AC01B5
:1010A000241935094609570989899A89AB89BC8968
:1010B000BC01CD016A197B098C099D094AD1A8019F
:1010C0009701241935094609570974D1CA01B90194
:1010D0006A0D7B1D8C1D9D1DDF91CF911F910F917E
:1010E000FF90EF90DF90CF90BF90AF907F906F9088
:1010F0005F904F900895089512DCFDDF61D8CFEC2A
:10110000D5E047D92097E9F34ADDFBCF089504D015
:101110006894B111B5C0089598D088F09F5790F0A9
:10112000B92F9927B751A0F0D1F0660F771F881F0C
:10113000991F1AF0BA95C9F712C0B13081F09FD04B
:10114000B1E008959CC0672F782F8827B85F39F0E9
:10115000B93FCCF3869577956795B395D9F73EF46B
:1011600090958095709561957F4F8F4F9F4F089513
:10117000E89409C097FB3EF4909580957095619531
:101180007F4F8F4F9F4F9923A9F0F92F96E9BB27E7
:101190009395F695879577956795B795F111F8CF63
:1011A000FAF4BB0F11F460FF1BC06F5F7F4F8F4FCE
:1011B0009F4F16C0882311F096E911C0772321F0C4
:1011C0009EE8872F762F05C0662371F096E8862F5C
:1011D00070E060E02AF09A95660F771F881FDAF7B3
:1011E000880F9695879597F9089597F99F6780E8F6
:1011F00070E060E008959FEF80EC089500240A9469
:101200001616170618060906089500240A941216E1
:101210001306140605060895092E0394000C11F414
:10122000882352F0BB0F40F4BF2B11F460FF04C0C1
:101230006F5F7F4F8F4F9F4F089557FD9058440F1A
:10124000551F59F05F3F71F04795880F97FB991F25
:1012500061F09F3F79F087950895121613061406E2
:10126000551FF2CF4695F1DF08C01616170618066F
:10127000991FF1CF86957105610508940895E8944A
:10128000BB2766277727CB0197F908950BD0C4CFEA
:10129000B5DF28F0BADF18F0952309F0A6CFABCF61
:1012A0001124EECFCADFA0F3959FD1F3950F50E044
:1012B000551F629FF001729FBB27F00DB11D639F08
:1012C000AA27F00DB11DAA1F649F6627B00DA11DAE
:1012D000661F829F2227B00DA11D621F739FB00D54
:1012E000A11D621F839FA00D611D221F749F3327C4
:1012F000A00D611D231F849F600D211D822F762F5D
:101300006A2F11249F5750408AF0E1F088234AF059
:10131000EE0FFF1FBB1F661F771F881F91505040A5
:10132000A9F79E3F510570F060CFAACF5F3FECF365
:10133000983EDCF3869577956795B795F795E79591
:101340009F5FC1F7FE2B880F911D9695879597F9A2
:101350000895DB018F939F9349D0BF91AF91A29FD6
:10136000800D911DA39F900DB29F900D11240895A3
:10137000A1E21A2EAA1BBB1BFD010DC0AA1FBB1F99
:10138000EE1FFF1FA217B307E407F50720F0A21B0B
:10139000B30BE40BF50B661F771F881F991F1A9478
:1013A00069F760957095809590959B01AC01BD01A2
:1013B000CF010895052E97FB16F400940FD057FD2A
:1013C00005D0D6DF07FC02D046F408C05095409502
:1013D000309521953F4F4F4F5F4F089590958095E1
:1013E000709561957F4F8F4F9F4F08950FD0A59FA8
:1013F000900DB49F900DA49F800D911D1124089510
:10140000EE0FFF1F0590F491E02D0994A29FB0010B
:10141000B39FC001A39F01D0B29F700D811D112405
:08142000911D0895F894FFCF1F
:10142800FF0368010143696E3A20002020202056FE
:10143800696E3A2000202020204D696E56616C3A72
:101448002000202020204D617856616C3A20002031
:101458002020205461726765742028637374293AC8
:1014680020002020202054617267657420286D6157
:1014780070293A200020202020506F736974696F0A
:101488006E3A2000000000001B063E07C005FC0560
:0A1498009205AC059E050D0A000048
:00000001FF
