:100000004CC070C06FC06EC06DC06CC06BC06AC0A9
:1000100069C068C067C066C065C064C063C062C0B4
:1000200000C360C0DCC50DC65DC05CC05BC05AC00B
:1000300059C058C000000009000302000004050870
:100040000000000000000000000000010204081091
:100050002040800102040810200102040810204002
:1000600080400404040404040404020202020202A4
:10007000030303030303020203000000002300261E
:1000800000290000000000250028002B00000000CF
:1000900000240027002A00004F0611241FBECFEFC6
:1000A000D4E0DEBFCDBF11E0A0E0B1E0E2E0F1E1DD
:1000B00002C005900D92A831B107D9F721E0A8E15F
:1000C000B1E001C01D92A73DB207E1F710E0CDE419
:1000D000D0E003C02197FE0100D8CC34D107D1F77E
:1000E00078D60DC88DCF61E089E005D460E081E16C
:1000F00002D410922A01089580912A01811109C029
:1001000061E081E1F8D360E089E0F5D381E080939C
:100110002A010895EF92FF920F931F93CF93DF93DD
:100120008C01EADF80910201909103010817190701
:100130003CF560E082E0DFD3809102019091030101
:10014000801B910B21E030E030932C0120932B0198
:10015000EC01CC0FDD1FF12CE12CEC16FD0604F5B3
:1001600061E083E0C8D388E592E00CD360E083E0EF
:10017000C2D388E592E006D33FEFE31AF30AEDCF4E
:1001800061E082E0B8D3809102019091030198016F
:10019000281B390BC90110922C0110922B01D8CFCA
:1001A0001093030100930201DF91CF911F910F91F2
:1001B000FF90EF9008958F929F92AF92BF92CF924F
:1001C000DF92EF92FF92CF93DF9380E197E2DAD252
:1001D00061E082E154D360E082E18DD361E080E1AF
:1001E0004ED361E080E187D361E081E148D360E0F4
:1001F00081E181D361E083E042D361E082E03FD3DB
:1002000061E088E03CD361E087E039D361E086E0DB
:1002100036D361E085E033D361E089E030D361E03B
:1002200084E02DD360E08AE02AD360E08FE027D31A
:1002300060E08EE024D361E088E05DD360E087E099
:100240005AD360E086E057D361E085E054D361E0A3
:1002500084E051D348DF60E081E14DD380E0C5D236
:1002600026E040E05BE460E070E08AE391E067D480
:1002700090E080E04FDF6AE070E080E090E04CD2F8
:1002800032DF68EE73E080E090E046D21092260103
:100290001092270110922801109229011092220138
:1002A000109223011092240110922501C2E3D0E0A4
:1002B0008EE09ED2092E000CAA0BBB0B40912601AA
:1002C000509127016091280170912901840F951F99
:1002D000A61FB71F8093260190932701A0932801A2
:1002E000B09329018FE084D2092E000CAA0BBB0B1E
:1002F00040912201509123016091240170912501C8
:100300006C017D01C40ED51EE61EF71EC0922201AF
:10031000D0922301E0922401F0922501219741F629
:100320006091260170912701809128019091290107
:1003300022E3822E912CA12CB12CA501940185D60B
:1003400020932601309327014093280150932901DF
:10035000C701B601A501940178D6209322013093FC
:100360002301409324015093250164EF71E080E064
:1003700090E0DF91CF91FF90EF90DF90CF90BF9012
:10038000AF909F908F90C8C14F925F926F927F9273
:100390008F929F92AF92BF92CF92DF92EF92FF9295
:1003A0000F931F93CF93DF9386D120912D0130912E
:1003B0002E01EB01C21BD30B80912A01811131C0A8
:1003C00080911801909119018C179D0754F5809127
:1003D0001C0190911D01C29708F07CC08FE008D2EB
:1003E000092E000CAA0BBB0B40911E0150911F015E
:1003F0006091200170912101840F951FA61FB71FE6
:1004000080931E0190931F01A0932001B0932101BE
:1004100080911C0190911D01019690931D01809384
:100420001C018AE095D261E0892B09F060E082E14D
:1004300062D28091180190911901209102013091AE
:1004400003018217930709F4DBC0821793070CF0AE
:10045000B8C040912B0150912C014130510509F059
:10046000BAC060E083E047D260910201709103015D
:10047000072E000C880B990B4FD180911801909199
:10048000190148DE6AE070E080E090E045D12BDEA3
:1004900012D160932D0170932E0180932F019093C0
:1004A00030016091180170911901072E000C880B22
:1004B000990BDF91CF911F910F91FF90EF90DF90FB
:1004C000CF90BF90AF909F908F907F906F905F90F4
:1004D0004F9022C160911E0170911F0180912001F7
:1004E0009091210122E330E040E050E0AED5490197
:1004F0005A018092220190922301A0922401B0928D
:10050000250110921E0110921F01109220011092DD
:10051000210160912601709127018091280190911D
:10052000290193D46B017C012DEC3CEC4CEC5EE397
:100530001AD55AD42B0170931B0160931A012DEC2C
:100540003CEC4CE45FE3C701B6010DD54DD46B0123
:100550007093010160930001B201550C880B990B57
:100560009B01AC017601DD0C000B110B8616970682
:10057000A806B90648F0C801B7018E149F04A0066A
:10058000B10610F4C501B40170931901609318010C
:100590001F921F92E1E0EF93E8E6EF93E4E6AE2EC0
:1005A000B12CC12CD12CD5D37093190160931801B3
:1005B00010921D0110921C010F900F900F900F9040
:1005C00030CF281739073CF440912B0150912C0172
:1005D000452B09F446CF821B930B97FF03C09195DF
:1005E00081959109843091055CF0CD3D25E0D207DD
:1005F0000CF037CF4A9724F0C93CD1050CF031CF2D
:10060000DF91CF911F910F91FF90EF90DF90CF90EE
:10061000BF90AF909F908F907F906F905F904F9022
:1006200008951F920F920FB60F9211242F933F93AC
:100630008F939F93AF93BF93809132019091330139
:10064000A0913401B09135013091310126E0230FA2
:100650002D3758F50296A11DB11D209331018093CD
:10066000320190933301A0933401B093350180910E
:10067000360190913701A0913801B091390101966E
:10068000A11DB11D8093360190933701A0933801CD
:10069000B0933901BF91AF919F918F913F912F916D
:1006A0000F900FBE0F901F90189529E8230F039607
:1006B000A11DB11DD2CF2FB7F89460913201709176
:1006C000330180913401909135012FBF08953FB7D8
:1006D000F8948091360190913701A0913801B09142
:1006E000390126B5A89B05C02F3F19F00196A11D21
:1006F000B11D3FBFBA2FA92F982F8827BC01CD016C
:10070000620F711D811D911D43E0660F771F881FC9
:10071000991F4A95D1F708958F929F92AF92BF92F9
:10072000CF92DF92EF92FF926B017C01D0DF4B0101
:100730005C01C114D104E104F104D9F054D3C7DF42
:10074000681979098A099B09683E734081059105FA
:1007500080F321E0C21AD108E108F10888EE880E82
:1007600083E0981EA11CB11CC114D104E104F10462
:1007700031F7FF90EF90DF90CF90BF90AF909F90B8
:100780008F900895000000008330910528F0880FB5
:10079000991F05970197F1F70895789484B58360C0
:1007A00084BD85B5836085BDEEE6F0E08081816023
:1007B0008083E1E8F0E082E0808380818160808353
:1007C000E0E8F0E0808181608083E1EBF0E080810F
:1007D00084608083E0EBF0E080818160808386E844
:1007E00080937A001092C1000895809304010895C7
:1007F000883020F08D3008F48DE08E502091040177
:1008000090E4299F900111248770822B80937C00B3
:1008100080917A00806480937A0080917A0086FDCE
:10082000FCCF80917800909179000895843081F018
:1008300028F48230E9F08330F9F00895883071F0BF
:10084000893091F08530B9F4809180008F7D03C0AC
:10085000809180008F778093800008958091B00010
:100860008F778093B00008958091B0008F7DF9CF8D
:1008700084B58F7784BD089584B58F7DFBCFCF93EA
:10088000DF9390E0FC01E55BFF4F24918E599F4F71
:10089000FC0184918823C9F090E0880F991FFC0126
:1008A000E357FF4FA591B491FC01ED57FF4FC59160
:1008B000D49161110DC09FB7F8948C91209582233B
:1008C0008C938881282328839FBFDF91CF9108953F
:1008D000623051F49FB7F8943C91822F8095832326
:1008E0008C93E8812E2BEFCF8FB7F894EC912E2BC1
:1008F0002C938FBFEACF1F93CF93DF93282F30E045
:10090000F901EC5CFF4F8491F901E55BFF4FD49155
:10091000F901EE59FF4FC491CC23A1F0162F81119C
:1009200085DFEC2FF0E0EE0FFF1FED57FF4FA59195
:10093000B4918FB7F894EC91111108C0D095DE23D3
:10094000DC938FBFDF91CF911F910895DE2BF8CFFD
:10095000CF93DF93282F30E0F901EC5CFF4F8491B7
:10096000F901E55BFF4FD491F901EE59FF4FC491B6
:10097000CC2399F081115ADFEC2FF0E0EE0FFF1F2E
:10098000E758FF4FA591B491EC91ED2381E090E001
:1009900009F480E0DF91CF91089580E090E0FACFF4
:1009A000FC01918D228D892F90E0805C9F4F821BEE
:1009B00091098F7399270895FC01918D828D981765
:1009C00031F0828DE80FF11D858D90E008958FEF55
:1009D0009FEF0895FC01918D828D981761F0A28D93
:1009E000AE0FBF2FB11D5D968C91928D9F5F9F734F
:1009F000928F90E008958FEF9FEF0895FC01538D43
:100A0000448D252F30E0842F90E0821B930B5417E8
:100A100010F0CF9608950197089586E496E0892B0B
:100A200039F080E090E0892B19F030D18111E8CACB
:100A30000895FC01A48DA80FB92FB11DA35ABF4F73
:100A40002C91848D90E001968F739927848FA689CD
:100A5000B7892C93A089B1898C9180648C93938DF4
:100A6000848D981306C00288F389E02D80818F7DE4
:100A700080830895CF93DF93EC01888D8823B1F0B4
:100A8000AA89BB89E889F9898C9185FD03C0808199
:100A900086FD0CC00FB607FCF7CF8C9185FFF2CF17
:100AA000808185FFEDCFCE01C4DFEACFDF91CF910A
:100AB0000895EF92FF920F931F93CF93DF93EC0172
:100AC00081E0888F9B8D8C8D981316C0E889F989F9
:100AD000808185FF11C0EE89FF896083E889F989EB
:100AE00080818064808381E090E0DF91CF911F91CD
:100AF0000F91FF90EF900895F62E0B8D10E00F5F91
:100B00001F4F0F731127E02E8C8D8E110BC00FB667
:100B100007FCFACFE889F989808185FFF5CFCE01FE
:100B200088DFF2CFEB8DEC0FFD2FF11DE35AFF4F65
:100B3000F0820B8FEA89FB8980818062D3CFCF92CC
:100B4000DF92EF92FF921F93CF93DF93EC016A0144
:100B50007B01122F60E874E88EE190E0A701960116
:100B600074D221503109410951095695479537955D
:100B70002795E889F98982E08083211580E138078B
:100B800090F0E889F989108260E472E48FE090E0E7
:100B9000A70196015AD221503109410951095695B0
:100BA000479537952795EC85FD853083EE85FF8544
:100BB0002083188EEC89FD891083EA89FB89808166
:100BC00088698083EA89FB8980818F7D8083DF91BA
:100BD000CF911F91FF90EF90DF90CF9008951F92DB
:100BE0000F920FB60F9211242F938F939F93EF9331
:100BF000FF93E0914A01F0914B018081E091500117
:100C0000F091510182FD1BC09081809153018F5F53
:100C10008F7320915401821741F0E0915301F0E06D
:100C2000E65CFE4F958F80935301FF91EF919F916A
:100C30008F912F910F900FBE0F901F90189580816C
:100C4000F4CF1F920F920FB60F9211242F933F9360
:100C50004F935F936F937F938F939F93AF93BF93C4
:100C6000EF93FF938AE391E0E4DEFF91EF91BF9170
:100C7000AF919F918F917F916F915F914F913F9134
:100C80002F910F900FBE0F901F9018958AE391E05F
:100C900087DE21E0892B09F420E0822F0895EAE322
:100CA000F1E01382128288EE93E0A0E0B0E084834A
:100CB0009583A683B78389E091E09183808385EC57
:100CC00090E09587848784EC90E09787868780EC16
:100CD00090E0918B808B81EC90E0938B828B82EC07
:100CE00090E0958B848B86EC90E0978B868B118EB1
:100CF000128E138E148E0895AF92BF92CF92DF9210
:100D0000EF92FF920F931F93CF93DF936C017B01C0
:100D10008B01040F151FEB015E01AE18BF08C01751
:100D2000D10759F06991D601ED91FC910190F081C4
:100D3000E02DC6010995892B79F7C501DF91CF9187
:100D40001F910F91FF90EF90DF90CF90BF90AF90E9
:100D500008954F925F926F927F92AF92BF92CF921F
:100D6000DF92EF92FF920F931F93CF93DF93CDB754
:100D7000DEB729013A019B01AC0124193509460966
:100D8000570989899A89AB89BC89BC01CD016A1947
:100D90007B098C099D094AD1A801970124193509BD
:100DA0004609570974D1CA01B9016A0D7B1D8C1D12
:100DB0009D1DDF91CF911F910F91FF90EF90DF90DC
:100DC000CF90BF90AF907F906F905F904F900895BD
:100DD0000895E3DCFDDFEFD9CDE0D5E0D5DA20974B
:100DE000E9F31BDEFBCF089504D06894B111B5C0C0
:100DF000089598D088F09F5790F0B92F9927B75150
:100E0000A0F0D1F0660F771F881F991F1AF0BA95CE
:100E1000C9F712C0B13081F09FD0B1E008959CC0F5
:100E2000672F782F8827B85F39F0B93FCCF38695C4
:100E300077956795B395D9F73EF490958095709521
:100E400061957F4F8F4F9F4F0895E89409C097FB9E
:100E50003EF490958095709561957F4F8F4F9F4F91
:100E60009923A9F0F92F96E9BB279395F6958795D5
:100E700077956795B795F111F8CFFAF4BB0F11F498
:100E800060FF1BC06F5F7F4F8F4F9F4F16C088233F
:100E900011F096E911C0772321F09EE8872F762F75
:100EA00005C0662371F096E8862F70E060E02AF0B6
:100EB0009A95660F771F881FDAF7880F96958795A2
:100EC00097F9089597F99F6780E870E060E00895CA
:100ED0009FEF80EC089500240A9416161706180652
:100EE0000906089500240A9412161306140605062E
:100EF0000895092E0394000C11F4882352F0BB0FBF
:100F000040F4BF2B11F460FF04C06F5F7F4F8F4F21
:100F10009F4F089557FD9058440F551F59F05F3F5C
:100F200071F04795880F97FB991F61F09F3F79F00B
:100F300087950895121613061406551FF2CF46958D
:100F4000F1DF08C0161617061806991FF1CF86950F
:100F50007105610508940895E894BB2766277727F3
:100F6000CB0197F908950BD0C4CFB5DF28F0BADFD5
:100F700018F0952309F0A6CFABCF1124EECFCADF2E
:100F8000A0F3959FD1F3950F50E0551F629FF0019C
:100F9000729FBB27F00DB11D639FAA27F00DB11DF5
:100FA000AA1F649F6627B00DA11D661F829F22277E
:100FB000B00DA11D621F739FB00DA11D621F839F05
:100FC000A00D611D221F749F3327A00D611D231FDB
:100FD000849F600D211D822F762F6A2F11249F5729
:100FE00050408AF0E1F088234AF0EE0FFF1FBB1F4C
:100FF000661F771F881F91505040A9F79E3F5105EB
:1010000070F060CFAACF5F3FECF3983EDCF386959B
:1010100077956795B795F795E7959F5FC1F7FE2B95
:10102000880F911D9695879597F90895DB018F9309
:101030009F9349D0BF91AF91A29F800D911DA39F17
:10104000900DB29F900D11240895A1E21A2EAA1BB3
:10105000BB1BFD010DC0AA1FBB1FEE1FFF1FA21768
:10106000B307E407F50720F0A21BB30BE40BF50B65
:10107000661F771F881F991F1A9469F760957095EE
:10108000809590959B01AC01BD01CF010895052E7F
:1010900097FB16F400940FD057FD05D0D6DF07FC60
:1010A00002D046F408C050954095309521953F4FA9
:1010B0004F4F5F4F089590958095709561957F4F44
:1010C0008F4F9F4F08950FD0A59F900DB49F900D07
:1010D000A49F800D911D11240895EE0FFF1F059010
:1010E000F491E02D0994A29FB001B39FC001A39F8A
:1010F00001D0B29F700D811D1124911D0895F894A7
:02110000FFCF1F
:10110200FF036801010000000059057C06FE043A55
:0811120005D004EA04DC04002E
:00000001FF
