:100000000C9467000C948F000C948F000C948F005C
:100010000C948F000C948F000C948F000C948F0024
:100020000C948F000C948F000C948F000C948F0014
:100030000C948F000C948F000C948F000C948F0004
:100040000C9470030C948F000C9459060C948B063E
:100050000C948F000C948F000C948F000C948F00E4
:100060000C948F000C948F00000000090003020024
:10007000000405080000000000000000000000016E
:10008000020408102040800102040810200102042C
:100090000810204080400404040404040404020204
:1000A000020202020303030303030202030000002F
:1000B0000023002600290000000000250028002B56
:1000C0000000000000240027002A0000BB061124C5
:1000D0001FBECFEFD4E0DEBFCDBF11E0A0E0B1E0A6
:1000E000E6E1F2E102C005900D92A831B107D9F71F
:1000F00021E0A8E1B1E001C01D92A73DB207E1F700
:1001000010E0C7E6D0E004C02197FE010E94F40889
:10011000C636D107C9F70E9457070C9409090C94F9
:10012000000061E089E00E94DD0460E081E10E945E
:10013000DD0410922A01089580912A0181110BC0DB
:1001400061E081E10E94DD0460E089E00E94DD045D
:1001500081E080932A010895EF92FF920F931F93FD
:10016000CF93DF938C010E949C00809102019091BB
:1001700003010817190764F560E082E00E94DD04BE
:100180008091020190910301801B910B21E030E0EE
:1001900030932C0120932B01EC01CC0FDD1FF12CAF
:1001A000E12CEC16FD062CF561E083E00E94DD04F5
:1001B00088E592E00E94240460E083E00E94DD0470
:1001C00088E592E00E9424043FEFE31AF30AE9CFA6
:1001D00061E082E00E94DD048091020190910301C0
:1001E0009801281B390BC90110922C0110922B0188
:1001F000D3CF1093030100930201DF91CF911F91A0
:100200000F91FF90EF9008958F929F92AF92BF92BF
:10021000CF92DF92EF92FF92CF93DF9380E197E24C
:100220000E94240461E082E10E94A10460E082E176
:100230000E94DD0461E080E10E94A10461E080E1B0
:100240000E94DD0461E081E10E94A10460E081E19F
:100250000E94DD0461E083E00E94A10461E082E08D
:100260000E94A10461E088E00E94A10461E087E0AF
:100270000E94A10461E086E00E94A10461E085E0A3
:100280000E94A10461E089E00E94A10461E084E091
:100290000E94A10460E08AE00E94A10460E08FE077
:1002A0000E94A10460E08EE00E94A10461E088E069
:1002B0000E94DD0460E087E00E94DD0460E086E0EB
:1002C0000E94DD0461E085E00E94DD0461E084E0DD
:1002D0000E94DD040E94910060E081E10E94DD0443
:1002E00080E00E94570426E040E05BE460E070E0BC
:1002F0008AE391E00E94070690E080E00E94AC0053
:100300006AE070E080E090E00E94EB030E949100C0
:1003100068EE73E080E090E00E94EB03109226010B
:1003200010922701109228011092290110922201A7
:10033000109223011092240110922501C2E3D0E013
:100340008EE00E945A04092E000CAA0BBB0B4091B0
:100350002601509127016091280170912901840F95
:10036000951FA61FB71F8093260190932701A09386
:100370002801B09329018FE00E945A04092E000C35
:10038000AA0BBB0B409122015091230160912401E3
:10039000709125016C017D01C40ED51EE61EF71E6D
:1003A000C0922201D0922301E0922401F092250113
:1003B000219731F6609126017091270180912801E3
:1003C0009091290122E3822E912CA12CB12CA50120
:1003D00094010E94A808209326013093270140939E
:1003E000280150932901C701B601A50194010E947B
:1003F000A8082093220130932301409324015093B5
:10040000250164EF71E080E090E0DF91CF91FF90F3
:10041000EF90DF90CF90BF90AF909F908F900C9413
:10042000EB034F925F926F927F928F929F92AF9267
:10043000BF92CF92DF92EF92FF920F931F93CF93D1
:10044000DF930E94BA0320912D0130912E01EB0120
:10045000C21BD30B80912A01811132C080911801F7
:10046000909119018C179D075CF580911C0190916A
:100470001D01C29708F086C08FE00E945A04092E21
:10048000000CAA0BBB0B40911E0150911F01609103
:10049000200170912101840F951FA61FB71F809323
:1004A0001E0190931F01A0932001B0932101809120
:1004B0001C0190911D01019690931D0180931C01D8
:1004C0008AE00E940B0561E0892B09F060E082E17F
:1004D0000E94DD0480911801909119012091020180
:1004E000309103018217930709F4E9C0821793073B
:1004F0000CF0C6C040912B0150912C0141305105A8
:1005000009F0C8C060E083E00E94DD046091020150
:1005100070910301072E000C880B990B0E94EB03CE
:1005200080911801909119010E94AC006AE070E07E
:1005300080E090E00E94EB030E9491000E94BA03C9
:1005400060932D0170932E0180932F0190933001C1
:100550006091180170911901072E000C880B990BFE
:10056000DF91CF911F910F91FF90EF90DF90CF908F
:10057000BF90AF909F908F907F906F905F904F90C3
:100580000C94EB0360911E0170911F01809120017A
:100590009091210122E330E040E050E00E94A80861
:1005A00049015A018092220190922301A0922401D4
:1005B000B092250110921E0110921F01109220018D
:1005C00010922101609126017091270180912801EC
:1005D000909129010E949D076B017C012DEC3CEC60
:1005E0004CEC5EE30E942B080E9467072B0170937E
:1005F0001B0160931A012DEC3CEC4CE45FE3C70156
:10060000B6010E942B080E9467076B0170930101DD
:1006100060930001B201550C880B990B9B01AC0152
:100620007601DD0C000B110B86169706A806B9069D
:1006300048F0C801B7018E149F04A006B10610F45B
:10064000C501B40170931901609318011F921F92A4
:10065000E1E0EF93E8E6EF93E4E6AE2EB12CC12C97
:10066000D12C0E9415077093190160931801109204
:100670001D0110921C010F900F900F900F9020CF32
:10068000281739073CF440912B0150912C01452B40
:1006900009F438CF821B930B97FF03C09195819586
:1006A0009109843091055CF0CD3D25E0D2070CF036
:1006B00029CF4A9724F0C93CD1050CF023CFDF9114
:1006C000CF911F910F91FF90EF90DF90CF90BF904F
:1006D000AF909F908F907F906F905F904F90089514
:1006E0001F920F920FB60F9211242F933F938F9367
:1006F0009F93AF93BF938091320190913301A0916A
:100700003401B09135013091310126E0230F2D37AE
:1007100058F50296A11DB11D20933101809332013D
:1007200090933301A0933401B09335018091360149
:1007300090913701A0913801B09139010196A11D26
:10074000B11D8093360190933701A0933801B09387
:100750003901BF91AF919F918F913F912F910F9050
:100760000FBE0F901F90189529E8230F0396A11D27
:10077000B11DD2CF2FB7F89460913201709133013F
:1007800080913401909135012FBF08953FB7F894BF
:100790008091360190913701A0913801B0913901D3
:1007A00026B5A89B05C02F3F19F00196A11DB11DCC
:1007B0003FBFBA2FA92F982F8827BC01CD01620F08
:1007C000711D811D911D43E0660F771F881F991FC2
:1007D0004A95D1F708958F929F92AF92BF92CF9290
:1007E000DF92EF92FF926B017C010E94C6034B01E6
:1007F0005C01C114D104E104F104E9F00E94660730
:100800000E94C603681979098A099B09683E7340EA
:100810008105910570F321E0C21AD108E108F108C1
:1008200088EE880E83E0981EA11CB11CC114D1046F
:10083000E104F10429F7FF90EF90DF90CF90BF9093
:10084000AF909F908F900895000000008330910535
:1008500028F0880F991F05970197F1F7089578946C
:1008600084B5836084BD85B5836085BDEEE6F0E028
:10087000808181608083E1E8F0E082E08083808194
:1008800081608083E0E8F0E0808181608083E1EB3B
:10089000F0E0808184608083E0EBF0E08081816023
:1008A000808386E880937A001092C1000895809337
:1008B00004010895883020F08D3008F48DE08E50CA
:1008C0002091040190E4299F900111248770822BCC
:1008D00080937C0080917A00806480937A0080917C
:1008E0007A0086FDFCCF8091780090917900089580
:1008F000843081F028F48230E9F08330F9F00895F3
:10090000883071F0893091F08530B9F480918000A1
:100910008F7D03C0809180008F7780938000089541
:100920008091B0008F778093B00008958091B000DF
:100930008F7DF9CF84B58F7784BD089584B58F7D81
:10094000FBCFCF93DF9390E0FC01E158FF4F249160
:100950008A569F4FFC0184918823C9F090E0880F4C
:10096000991FFC01EF53FF4FA591B491FC01E9548D
:10097000FF4FC591D49161110DC09FB7F8948C9130
:10098000209582238C938881282328839FBFDF9121
:10099000CF910895623051F49FB7F8943C91822F23
:1009A000809583238C93E8812E2BEFCF8FB7F8941B
:1009B000EC912E2B2C938FBFEACF1F93CF93DF9315
:1009C000282F30E0F901E859FF4F8491F901E158EF
:1009D000FF4FD491F901EA56FF4FC491CC23A9F0FF
:1009E000162F81110E947804EC2FF0E0EE0FFF1F0C
:1009F000E954FF4FA591B4918FB7F894EC91111180
:100A000008C0D095DE23DC938FBFDF91CF911F917B
:100A10000895DE2BF8CFCF93DF93282F30E0F90134
:100A2000E859FF4F8491F901E158FF4FD491F90142
:100A3000EA56FF4FC491CC23A1F081110E947804A3
:100A4000EC2FF0E0EE0FFF1FE355FF4FA591B4919F
:100A5000EC91ED2381E090E009F480E0DF91CF910B
:100A6000089580E090E0FACFFC01918D228D892FCE
:100A700090E0805C9F4F821B91098F7399270895A6
:100A8000FC01918D828D981731F0828DE80FF11D58
:100A9000858D90E008958FEF9FEF0895FC01918D73
:100AA000828D981761F0A28DAE0FBF2FB11D5D969C
:100AB0008C91928D9F5F9F73928F90E008958FEF3E
:100AC0009FEF0895FC01538D448D252F30E0842F36
:100AD00090E0821B930B541710F0CF960895019766
:100AE000089581EB96E0892B49F080E090E0892B16
:100AF00029F00E94B10681110C9400000895FC01B8
:100B0000A48DA80FB92FB11DA35ABF4F2C91848D6E
:100B100090E001968F739927848FA689B7892C93CB
:100B2000A089B1898C9180648C93938D848D981366
:100B300006C00288F389E02D80818F7D808308952F
:100B4000CF93DF93EC01888D8823B9F0AA89BB8904
:100B5000E889F9898C9185FD03C0808186FD0DC0EF
:100B60000FB607FCF7CF8C9185FFF2CF808185FF10
:100B7000EDCFCE010E947F05E9CFDF91CF9108959F
:100B8000EF92FF920F931F93CF93DF93EC0181E0DD
:100B9000888F9B8D8C8D981316C0E889F989808188
:100BA00085FF11C0EE89FF896083E889F98980811A
:100BB0008064808381E090E0DF91CF911F910F915D
:100BC000FF90EF900895F62E0B8D10E00F5F1F4FF2
:100BD0000F731127E02E8C8D8E110CC00FB607FC01
:100BE000FACFE889F989808185FFF5CFCE010E948F
:100BF0007F05F1CFEB8DEC0FFD2FF11DE35AFF4F79
:100C0000F0820B8FEA89FB8980818062D2CFCF92FC
:100C1000DF92EF92FF921F93CF93DF93EC016A0173
:100C20007B01122F60E874E88EE190E0A701960145
:100C30000E94A8082150310941095109569547954C
:100C400037952795E889F98982E08083211580E12D
:100C5000380798F0E889F989108260E472E48FE03F
:100C600090E0A70196010E94A8082150310941098E
:100C700051095695479537952795EC85FD85308325
:100C8000EE85FF852083188EEC89FD891083EA8923
:100C9000FB89808188698083EA89FB8980818F7DD7
:100CA0008083DF91CF911F91FF90EF90DF90CF90E5
:100CB00008951F920F920FB60F9211242F938F93C6
:100CC0009F93EF93FF93E0914A01F0914B01808154
:100CD000E0915001F091510182FD1BC09081809103
:100CE00053018F5F8F7320915401821741F0E0917F
:100CF0005301F0E0E65CFE4F958F80935301FF9126
:100D0000EF919F918F912F910F900FBE0F901F9099
:100D100018958081F4CF1F920F920FB60F92112475
:100D20002F933F934F935F936F937F938F939F93F3
:100D3000AF93BF93EF93FF938AE391E00E947F0507
:100D4000FF91EF91BF91AF919F918F917F916F91A3
:100D50005F914F913F912F910F900FBE0F901F9079
:100D600018958AE391E00E94340521E0892B09F46B
:100D700020E0822F0895EAE3F1E01382128288EEE8
:100D800093E0A0E0B0E084839583A683B78389E0F5
:100D900091E09183808385EC90E09587848784EC53
:100DA00090E09787868780EC90E0918B808B81EC38
:100DB00090E0938B828B82EC90E0958B848B86EC19
:100DC00090E0978B868B118E128E138E148E089561
:100DD000AF92BF92CF92DF92EF92FF920F931F9349
:100DE000CF93DF936C017B018B01040F151FEB0187
:100DF0005E01AE18BF08C017D10759F06991D6013E
:100E0000ED91FC910190F081E02DC6010995892BAF
:100E100079F7C501DF91CF911F910F91FF90EF906E
:100E2000DF90CF90BF90AF9008954F925F926F92F6
:100E30007F92AF92BF92CF92DF92EF92FF920F9389
:100E40001F93CF93DF93CDB7DEB729013A019B0102
:100E5000AC01241935094609570989899A89AB8952
:100E6000BC89BC01CD016A197B098C099D090E94CE
:100E70009808A801970124193509460957090E94C5
:100E8000CA08CA01B9016A0D7B1D8C1D9D1DDF9129
:100E9000CF911F910F91FF90EF90DF90CF90BF9077
:100EA000AF907F906F905F904F90089508950E944B
:100EB0002F040E9456070E940401C1E7D5E00E945A
:100EC00011022097E1F30E947105F9CF08950E9465
:100ED0006E076894B1110C94250808950E940A08C1
:100EE00088F09F5798F0B92F9927B751B0F0E1F0EB
:100EF000660F771F881F991F1AF0BA95C9F714C09B
:100F0000B13091F00E942408B1E008950C942408B7
:100F1000672F782F8827B85F39F0B93FCCF38695D3
:100F200077956795B395D9F73EF490958095709530
:100F300061957F4F8F4F9F4F0895E89409C097FBAD
:100F40003EF490958095709561957F4F8F4F9F4FA0
:100F50009923A9F0F92F96E9BB279395F6958795E4
:100F600077956795B795F111F8CFFAF4BB0F11F4A7
:100F700060FF1BC06F5F7F4F8F4F9F4F16C088234E
:100F800011F096E911C0772321F09EE8872F762F84
:100F900005C0662371F096E8862F70E060E02AF0C5
:100FA0009A95660F771F881FDAF7880F96958795B1
:100FB00097F9089597F99F6780E870E060E00895D9
:100FC0009FEF80EC089500240A9416161706180661
:100FD0000906089500240A9412161306140605063D
:100FE0000895092E0394000C11F4882352F0BB0FCE
:100FF00040F4BF2B11F460FF04C06F5F7F4F8F4F31
:101000009F4F089557FD9058440F551F59F05F3F6B
:1010100071F04795880F97FB991F61F09F3F79F01A
:1010200087950895121613061406551FF2CF46959C
:10103000F1DF08C0161617061806991FF1CF86951E
:101040007105610508940895E894BB276627772702
:10105000CB0197F908950E943E080C94F1070E9475
:10106000E30738F00E94EA0720F0952311F00C9472
:10107000DA070C94E00711240C9425080E9402085A
:1010800070F3959FC1F3950F50E0551F629FF001DB
:10109000729FBB27F00DB11D639FAA27F00DB11DF4
:1010A000AA1F649F6627B00DA11D661F829F22277D
:1010B000B00DA11D621F739FB00DA11D621F839F04
:1010C000A00D611D221F749F3327A00D611D231FDA
:1010D000849F600D211D822F762F6A2F11249F5728
:1010E00050409AF0F1F088234AF0EE0FFF1FBB1F2B
:1010F000661F771F881F91505040A9F79E3F5105EA
:1011000080F00C94DA070C9425085F3FE4F3983ED6
:10111000D4F3869577956795B795F795E7959F5F93
:10112000C1F7FE2B880F911D9695879597F9089525
:10113000DB018F939F930E94E908BF91AF91A29F1B
:10114000800D911DA39F900DB29F900D11240895C5
:10115000A1E21A2EAA1BBB1BFD010DC0AA1FBB1FBB
:10116000EE1FFF1FA217B307E407F50720F0A21B2D
:10117000B30BE40BF50B661F771F881F991F1A949A
:1011800069F760957095809590959B01AC01BD01C4
:10119000CF010895052E97FB1EF400940E94E108EC
:1011A00057FD07D00E94A80807FC03D04EF40C940A
:1011B000E10850954095309521953F4F4F4F5F4F37
:1011C000089590958095709561957F4F8F4F9F4FB3
:1011D00008950E94FA08A59F900DB49F900DA49FBA
:1011E000800D911D11240895EE0FFF1F0590F491BD
:1011F000E02D0994A29FB001B39FC001A39F700D81
:10120000811D1124911DB29F700D811D1124911D0E
:061210000895F894FFCFE1
:10121600FF0368010100000000C005E8066205A0A2
:081226000534054E05400500EA
:00000001FF
